{
  "contractName": "VotingSystem",
  "abi": [
    {
      "inputs": [],
      "stateMutability": "nonpayable",
      "type": "constructor"
    },
    {
      "anonymous": false,
      "inputs": [
        {
          "indexed": false,
          "internalType": "uint256",
          "name": "sessionId",
          "type": "uint256"
        },
        {
          "indexed": false,
          "internalType": "uint256",
          "name": "candidateId",
          "type": "uint256"
        },
        {
          "indexed": false,
          "internalType": "string",
          "name": "name",
          "type": "string"
        }
      ],
      "name": "CandidateAdded",
      "type": "event"
    },
    {
      "anonymous": false,
      "inputs": [
        {
          "indexed": false,
          "internalType": "uint256",
          "name": "sessionId",
          "type": "uint256"
        },
        {
          "indexed": false,
          "internalType": "uint256",
          "name": "candidateId",
          "type": "uint256"
        },
        {
          "indexed": false,
          "internalType": "string",
          "name": "name",
          "type": "string"
        }
      ],
      "name": "CandidateRemoved",
      "type": "event"
    },
    {
      "anonymous": false,
      "inputs": [
        {
          "indexed": false,
          "internalType": "uint256",
          "name": "sessionId",
          "type": "uint256"
        },
        {
          "indexed": false,
          "internalType": "address",
          "name": "sessionAdmin",
          "type": "address"
        }
      ],
      "name": "SessionCreated",
      "type": "event"
    },
    {
      "anonymous": false,
      "inputs": [
        {
          "indexed": false,
          "internalType": "uint256",
          "name": "sessionId",
          "type": "uint256"
        },
        {
          "indexed": true,
          "internalType": "address",
          "name": "voter",
          "type": "address"
        },
        {
          "indexed": false,
          "internalType": "uint256",
          "name": "candidateId",
          "type": "uint256"
        }
      ],
      "name": "VoteCast",
      "type": "event"
    },
    {
      "anonymous": false,
      "inputs": [
        {
          "indexed": false,
          "internalType": "uint256",
          "name": "sessionId",
          "type": "uint256"
        },
        {
          "indexed": false,
          "internalType": "uint256",
          "name": "endTime",
          "type": "uint256"
        }
      ],
      "name": "VotingEnded",
      "type": "event"
    },
    {
      "anonymous": false,
      "inputs": [
        {
          "indexed": false,
          "internalType": "uint256",
          "name": "sessionId",
          "type": "uint256"
        },
        {
          "indexed": false,
          "internalType": "uint256",
          "name": "startTime",
          "type": "uint256"
        },
        {
          "indexed": false,
          "internalType": "uint256",
          "name": "endTime",
          "type": "uint256"
        }
      ],
      "name": "VotingStarted",
      "type": "event"
    },
    {
      "inputs": [],
      "name": "host",
      "outputs": [
        {
          "internalType": "address",
          "name": "",
          "type": "address"
        }
      ],
      "stateMutability": "view",
      "type": "function",
      "constant": true
    },
    {
      "inputs": [],
      "name": "sessionCount",
      "outputs": [
        {
          "internalType": "uint256",
          "name": "",
          "type": "uint256"
        }
      ],
      "stateMutability": "view",
      "type": "function",
      "constant": true
    },
    {
      "inputs": [
        {
          "internalType": "address",
          "name": "sessionAdmin",
          "type": "address"
        }
      ],
      "name": "createSession",
      "outputs": [
        {
          "internalType": "uint256",
          "name": "",
          "type": "uint256"
        }
      ],
      "stateMutability": "nonpayable",
      "type": "function"
    },
    {
      "inputs": [
        {
          "internalType": "uint256",
          "name": "sessionId",
          "type": "uint256"
        },
        {
          "internalType": "string",
          "name": "name",
          "type": "string"
        }
      ],
      "name": "addCandidate",
      "outputs": [],
      "stateMutability": "nonpayable",
      "type": "function"
    },
    {
      "inputs": [
        {
          "internalType": "uint256",
          "name": "sessionId",
          "type": "uint256"
        },
        {
          "internalType": "uint256",
          "name": "candidateId",
          "type": "uint256"
        }
      ],
      "name": "removeCandidate",
      "outputs": [],
      "stateMutability": "nonpayable",
      "type": "function"
    },
    {
      "inputs": [
        {
          "internalType": "uint256",
          "name": "sessionId",
          "type": "uint256"
        },
        {
          "internalType": "uint256",
          "name": "durationMinutes",
          "type": "uint256"
        }
      ],
      "name": "startVoting",
      "outputs": [],
      "stateMutability": "nonpayable",
      "type": "function"
    },
    {
      "inputs": [
        {
          "internalType": "uint256",
          "name": "sessionId",
          "type": "uint256"
        },
        {
          "internalType": "uint256",
          "name": "candidateId",
          "type": "uint256"
        }
      ],
      "name": "vote",
      "outputs": [],
      "stateMutability": "nonpayable",
      "type": "function"
    },
    {
      "inputs": [
        {
          "internalType": "uint256",
          "name": "sessionId",
          "type": "uint256"
        }
      ],
      "name": "endVoting",
      "outputs": [],
      "stateMutability": "nonpayable",
      "type": "function"
    },
    {
      "inputs": [
        {
          "internalType": "uint256",
          "name": "sessionId",
          "type": "uint256"
        }
      ],
      "name": "getVotingStatus",
      "outputs": [
        {
          "internalType": "bool",
          "name": "isActive",
          "type": "bool"
        },
        {
          "internalType": "uint256",
          "name": "timeLeft",
          "type": "uint256"
        },
        {
          "internalType": "uint256",
          "name": "totalVotesCount",
          "type": "uint256"
        }
      ],
      "stateMutability": "view",
      "type": "function",
      "constant": true
    },
    {
      "inputs": [
        {
          "internalType": "uint256",
          "name": "sessionId",
          "type": "uint256"
        },
        {
          "internalType": "uint256",
          "name": "candidateId",
          "type": "uint256"
        }
      ],
      "name": "getCandidate",
      "outputs": [
        {
          "internalType": "string",
          "name": "name",
          "type": "string"
        },
        {
          "internalType": "uint256",
          "name": "voteCount",
          "type": "uint256"
        }
      ],
      "stateMutability": "view",
      "type": "function",
      "constant": true
    },
    {
      "inputs": [
        {
          "internalType": "uint256",
          "name": "sessionId",
          "type": "uint256"
        }
      ],
      "name": "getActiveCandidates",
      "outputs": [
        {
          "internalType": "uint256[]",
          "name": "ids",
          "type": "uint256[]"
        },
        {
          "internalType": "string[]",
          "name": "names",
          "type": "string[]"
        },
        {
          "internalType": "uint256[]",
          "name": "voteCounts",
          "type": "uint256[]"
        }
      ],
      "stateMutability": "view",
      "type": "function",
      "constant": true
    }
  ],
  "bytecode": "0x60a060405234801561001057600080fd5b503373ffffffffffffffffffffffffffffffffffffffff1660808173ffffffffffffffffffffffffffffffffffffffff16815250506080516123fa6100676000396000818161043301526110ac01526123fa6000f3fe608060405234801561001057600080fd5b50600436106100a95760003560e01c80638f633994116100715780638f6339941461016557806390fe560914610197578063b384abef146101b3578063f2eae4f2146101cf578063f437bc5914610201578063fa901afa1461021f576100a9565b80631750a3d0146100ae5780634254188c146100ca5780634bd46448146100fa578063649f89a51461012b57806373cd833614610147575b600080fd5b6100c860048036038101906100c39190611634565b61023b565b005b6100e460048036038101906100df91906116ee565b61042f565b6040516100f1919061172a565b60405180910390f35b610114600480360381019061010f9190611745565b610577565b60405161012292919061180d565b60405180910390f35b6101456004803603810190610140919061183d565b6106f2565b005b61014f610867565b60405161015c919061172a565b60405180910390f35b61017f600480360381019061017a919061183d565b61086d565b60405161018e93929190611885565b60405180910390f35b6101b160048036038101906101ac9190611745565b61094c565b005b6101cd60048036038101906101c89190611745565b610b31565b005b6101e960048036038101906101e4919061183d565b610e16565b6040516101f893929190611a86565b60405180910390f35b6102096110aa565b6040516102169190611ae1565b60405180910390f35b61023960048036038101906102349190611745565b6110ce565b005b816001600082815260200190815260200160002060000160009054906101000a900473ffffffffffffffffffffffffffffffffffffffff1673ffffffffffffffffffffffffffffffffffffffff163373ffffffffffffffffffffffffffffffffffffffff16146102e0576040517f08c379a00000000000000000000000000000000000000000000000000000000081526004016102d790611b6e565b60405180910390fd5b60006001600085815260200190815260200160002090508060030160009054906101000a900460ff1615610349576040517f08c379a000000000000000000000000000000000000000000000000000000000815260040161034090611c00565b60405180910390fd5b80600401600081548092919061035e90611c4f565b919050555080600501600081548092919061037890611c4f565b91905055506040518060600160405280826004015481526020018481526020016000815250816006016000836004015481526020019081526020016000206000820151816000015560208201518160010190805190602001906103dc9291906113c1565b50604082015181600201559050507fed8911b3df733b7d5f75724158e54478ea12e30f49c9d31b5261879f5b76586f8482600401548560405161042193929190611c97565b60405180910390a150505050565b60007f000000000000000000000000000000000000000000000000000000000000000073ffffffffffffffffffffffffffffffffffffffff163373ffffffffffffffffffffffffffffffffffffffff16146104bf576040517f08c379a00000000000000000000000000000000000000000000000000000000081526004016104b690611d21565b60405180910390fd5b6000808154809291906104d190611c4f565b9190505550600060016000805481526020019081526020016000209050828160000160006101000a81548173ffffffffffffffffffffffffffffffffffffffff021916908373ffffffffffffffffffffffffffffffffffffffff1602179055507f6c5e54a4b431f9740a3fe6060098a66514c1429d75fdc49180975faaf855277960005484604051610564929190611d41565b60405180910390a1600054915050919050565b60606000806001600086815260200190815260200160002090506000841180156105a5575080600401548411155b6105e4576040517f08c379a00000000000000000000000000000000000000000000000000000000081526004016105db90611db6565b60405180910390fd5b60008160060160008681526020019081526020016000209050600081600101805461060e90611e05565b905003610650576040517f08c379a000000000000000000000000000000000000000000000000000000000815260040161064790611e82565b60405180910390fd5b80600101816002015481805461066590611e05565b80601f016020809104026020016040519081016040528092919081815260200182805461069190611e05565b80156106de5780601f106106b3576101008083540402835291602001916106de565b820191906000526020600020905b8154815290600101906020018083116106c157829003601f168201915b505050505091509350935050509250929050565b806001600082815260200190815260200160002060000160009054906101000a900473ffffffffffffffffffffffffffffffffffffffff1673ffffffffffffffffffffffffffffffffffffffff163373ffffffffffffffffffffffffffffffffffffffff1614610797576040517f08c379a000000000000000000000000000000000000000000000000000000000815260040161078e90611b6e565b60405180910390fd5b60006001600084815260200190815260200160002090508060030160009054906101000a900460ff166107ff576040517f08c379a00000000000000000000000000000000000000000000000000000000081526004016107f690611eee565b60405180910390fd5b60008160030160006101000a81548160ff0219169083151502179055504281600201819055507f04e400203b6647e7ab88412380ee2430174c77bd98021012d3647eb3fa63f63f83826002015460405161085a929190611f0e565b60405180910390a1505050565b60005481565b6000806000806001600086815260200190815260200160002090508060030160009054906101000a900460ff1680156108a95750806002015442105b9350836108b75760006108c8565b4281600201546108c79190611f37565b5b92506000600190505b81600401548111610943576000826006016000838152602001908152602001600020600101805461090190611e05565b9050111561093057816006016000828152602001908152602001600020600201548361092d9190611f6b565b92505b808061093b90611c4f565b9150506108d1565b50509193909250565b816001600082815260200190815260200160002060000160009054906101000a900473ffffffffffffffffffffffffffffffffffffffff1673ffffffffffffffffffffffffffffffffffffffff163373ffffffffffffffffffffffffffffffffffffffff16146109f1576040517f08c379a00000000000000000000000000000000000000000000000000000000081526004016109e890611b6e565b60405180910390fd5b60006001600085815260200190815260200160002090508060030160009054906101000a900460ff1615610a5a576040517f08c379a0000000000000000000000000000000000000000000000000000000008152600401610a519061200d565b60405180910390fd5b600281600501541015610aa2576040517f08c379a0000000000000000000000000000000000000000000000000000000008152600401610a9990612079565b60405180910390fd5b428160010181905550603c83610ab89190612099565b42610ac39190611f6b565b816002018190555060018160030160006101000a81548160ff0219169083151502179055507f79f4674ed037bbb3d5409860f08f43169a7aab59581ca8d1f2f97578dc944b918482600101548360020154604051610b23939291906120f3565b60405180910390a150505050565b60006001600084815260200190815260200160002090508060030160009054906101000a900460ff16610b99576040517f08c379a0000000000000000000000000000000000000000000000000000000008152600401610b9090612176565b60405180910390fd5b80600101544210158015610bb1575080600201544211155b610bf0576040517f08c379a0000000000000000000000000000000000000000000000000000000008152600401610be7906121e2565b60405180910390fd5b8060070160003373ffffffffffffffffffffffffffffffffffffffff1673ffffffffffffffffffffffffffffffffffffffff16815260200190815260200160002060009054906101000a900460ff1615610c7f576040517f08c379a0000000000000000000000000000000000000000000000000000000008152600401610c769061224e565b60405180910390fd5b600082118015610c93575080600401548211155b610cd2576040517f08c379a0000000000000000000000000000000000000000000000000000000008152600401610cc990611db6565b60405180910390fd5b60008160060160008481526020019081526020016000206001018054610cf790611e05565b905003610d39576040517f08c379a0000000000000000000000000000000000000000000000000000000008152600401610d3090611e82565b60405180910390fd5b60018160070160003373ffffffffffffffffffffffffffffffffffffffff1673ffffffffffffffffffffffffffffffffffffffff16815260200190815260200160002060006101000a81548160ff0219169083151502179055508060060160008381526020019081526020016000206002016000815480929190610dbc90611c4f565b91905055503373ffffffffffffffffffffffffffffffffffffffff167f2acce567deca3aabf56327adbb4524bd5318936eaefa69e3a5208ffda0cfec098484604051610e09929190611f0e565b60405180910390a2505050565b60608060606000600160008681526020019081526020016000206005015490508067ffffffffffffffff811115610e5057610e4f611509565b5b604051908082528060200260200182016040528015610e7e5781602001602082028036833780820191505090505b5093508067ffffffffffffffff811115610e9b57610e9a611509565b5b604051908082528060200260200182016040528015610ece57816020015b6060815260200190600190039081610eb95790505b5092508067ffffffffffffffff811115610eeb57610eea611509565b5b604051908082528060200260200182016040528015610f195781602001602082028036833780820191505090505b509150600080600190505b600160008881526020019081526020016000206004015481116110a057600060016000898152602001908152602001600020600601600083815260200190815260200160002090506000816001018054610f7d90611e05565b905003610f8a575061108d565b8060000154878481518110610fa257610fa161226e565b5b602002602001018181525050806001018054610fbd90611e05565b80601f0160208091040260200160405190810160405280929190818152602001828054610fe990611e05565b80156110365780601f1061100b57610100808354040283529160200191611036565b820191906000526020600020905b81548152906001019060200180831161101957829003601f168201915b505050505086848151811061104e5761104d61226e565b5b602002602001018190525080600201548584815181106110715761107061226e565b5b602002602001018181525050828061108890611c4f565b935050505b808061109890611c4f565b915050610f24565b5050509193909250565b7f000000000000000000000000000000000000000000000000000000000000000081565b816001600082815260200190815260200160002060000160009054906101000a900473ffffffffffffffffffffffffffffffffffffffff1673ffffffffffffffffffffffffffffffffffffffff163373ffffffffffffffffffffffffffffffffffffffff1614611173576040517f08c379a000000000000000000000000000000000000000000000000000000000815260040161116a90611b6e565b60405180910390fd5b60006001600085815260200190815260200160002090508060030160009054906101000a900460ff16156111dc576040517f08c379a00000000000000000000000000000000000000000000000000000000081526004016111d39061230f565b60405180910390fd5b6000831180156111f0575080600401548311155b61122f576040517f08c379a00000000000000000000000000000000000000000000000000000000081526004016112269061237b565b60405180910390fd5b60008160060160008581526020019081526020016000209050600081600101805461125990611e05565b90500361129b576040517f08c379a000000000000000000000000000000000000000000000000000000000815260040161129290611e82565b60405180910390fd5b60008160010180546112ac90611e05565b80601f01602080910402602001604051908101604052809291908181526020018280546112d890611e05565b80156113255780601f106112fa57610100808354040283529160200191611325565b820191906000526020600020905b81548152906001019060200180831161130857829003601f168201915b5050505050905082600601600086815260200190815260200160002060008082016000905560018201600061135a9190611447565b600282016000905550508260050160008154809291906113799061239b565b91905055507fc6a7fa5c3c69aa6762907413d05b1c1568efce466eb5b87e49b8e3d2adee48c28686836040516113b193929190611c97565b60405180910390a1505050505050565b8280546113cd90611e05565b90600052602060002090601f0160209004810192826113ef5760008555611436565b82601f1061140857805160ff1916838001178555611436565b82800160010185558215611436579182015b8281111561143557825182559160200191906001019061141a565b5b5090506114439190611487565b5090565b50805461145390611e05565b6000825580601f106114655750611484565b601f0160209004906000526020600020908101906114839190611487565b5b50565b5b808211156114a0576000816000905550600101611488565b5090565b6000604051905090565b600080fd5b600080fd5b6000819050919050565b6114cb816114b8565b81146114d657600080fd5b50565b6000813590506114e8816114c2565b92915050565b600080fd5b600080fd5b6000601f19601f8301169050919050565b7f4e487b7100000000000000000000000000000000000000000000000000000000600052604160045260246000fd5b611541826114f8565b810181811067ffffffffffffffff821117156115605761155f611509565b5b80604052505050565b60006115736114a4565b905061157f8282611538565b919050565b600067ffffffffffffffff82111561159f5761159e611509565b5b6115a8826114f8565b9050602081019050919050565b82818337600083830152505050565b60006115d76115d284611584565b611569565b9050828152602081018484840111156115f3576115f26114f3565b5b6115fe8482856115b5565b509392505050565b600082601f83011261161b5761161a6114ee565b5b813561162b8482602086016115c4565b91505092915050565b6000806040838503121561164b5761164a6114ae565b5b6000611659858286016114d9565b925050602083013567ffffffffffffffff81111561167a576116796114b3565b5b61168685828601611606565b9150509250929050565b600073ffffffffffffffffffffffffffffffffffffffff82169050919050565b60006116bb82611690565b9050919050565b6116cb816116b0565b81146116d657600080fd5b50565b6000813590506116e8816116c2565b92915050565b600060208284031215611704576117036114ae565b5b6000611712848285016116d9565b91505092915050565b611724816114b8565b82525050565b600060208201905061173f600083018461171b565b92915050565b6000806040838503121561175c5761175b6114ae565b5b600061176a858286016114d9565b925050602061177b858286016114d9565b9150509250929050565b600081519050919050565b600082825260208201905092915050565b60005b838110156117bf5780820151818401526020810190506117a4565b838111156117ce576000848401525b50505050565b60006117df82611785565b6117e98185611790565b93506117f98185602086016117a1565b611802816114f8565b840191505092915050565b6000604082019050818103600083015261182781856117d4565b9050611836602083018461171b565b9392505050565b600060208284031215611853576118526114ae565b5b6000611861848285016114d9565b91505092915050565b60008115159050919050565b61187f8161186a565b82525050565b600060608201905061189a6000830186611876565b6118a7602083018561171b565b6118b4604083018461171b565b949350505050565b600081519050919050565b600082825260208201905092915050565b6000819050602082019050919050565b6118f1816114b8565b82525050565b600061190383836118e8565b60208301905092915050565b6000602082019050919050565b6000611927826118bc565b61193181856118c7565b935061193c836118d8565b8060005b8381101561196d57815161195488826118f7565b975061195f8361190f565b925050600181019050611940565b5085935050505092915050565b600081519050919050565b600082825260208201905092915050565b6000819050602082019050919050565b600082825260208201905092915050565b60006119c282611785565b6119cc81856119a6565b93506119dc8185602086016117a1565b6119e5816114f8565b840191505092915050565b60006119fc83836119b7565b905092915050565b6000602082019050919050565b6000611a1c8261197a565b611a268185611985565b935083602082028501611a3885611996565b8060005b85811015611a745784840389528151611a5585826119f0565b9450611a6083611a04565b925060208a01995050600181019050611a3c565b50829750879550505050505092915050565b60006060820190508181036000830152611aa0818661191c565b90508181036020830152611ab48185611a11565b90508181036040830152611ac8818461191c565b9050949350505050565b611adb816116b0565b82525050565b6000602082019050611af66000830184611ad2565b92915050565b7f4f6e6c792073657373696f6e2061646d696e2063616e20706572666f726d207460008201527f68697320616374696f6e00000000000000000000000000000000000000000000602082015250565b6000611b58602a83611790565b9150611b6382611afc565b604082019050919050565b60006020820190508181036000830152611b8781611b4b565b9050919050565b7f43616e6e6f74206164642063616e64696461746520647572696e67206163746960008201527f766520766f74696e672073657373696f6e000000000000000000000000000000602082015250565b6000611bea603183611790565b9150611bf582611b8e565b604082019050919050565b60006020820190508181036000830152611c1981611bdd565b9050919050565b7f4e487b7100000000000000000000000000000000000000000000000000000000600052601160045260246000fd5b6000611c5a826114b8565b91507fffffffffffffffffffffffffffffffffffffffffffffffffffffffffffffffff8203611c8c57611c8b611c20565b5b600182019050919050565b6000606082019050611cac600083018661171b565b611cb9602083018561171b565b8181036040830152611ccb81846117d4565b9050949350505050565b7f4f6e6c7920686f73742063616e20706572666f6d207468697320616374696f6e600082015250565b6000611d0b602083611790565b9150611d1682611cd5565b602082019050919050565b60006020820190508181036000830152611d3a81611cfe565b9050919050565b6000604082019050611d56600083018561171b565b611d636020830184611ad2565b9392505050565b7f496e76616c69642063616e646964617465204944000000000000000000000000600082015250565b6000611da0601483611790565b9150611dab82611d6a565b602082019050919050565b60006020820190508181036000830152611dcf81611d93565b9050919050565b7f4e487b7100000000000000000000000000000000000000000000000000000000600052602260045260246000fd5b60006002820490506001821680611e1d57607f821691505b602082108103611e3057611e2f611dd6565b5b50919050565b7f43616e64696461746520646f6573206e6f742065786973740000000000000000600082015250565b6000611e6c601883611790565b9150611e7782611e36565b602082019050919050565b60006020820190508181036000830152611e9b81611e5f565b9050919050565b7f566f74696e672073657373696f6e206e6f742061637469766500000000000000600082015250565b6000611ed8601983611790565b9150611ee382611ea2565b602082019050919050565b60006020820190508181036000830152611f0781611ecb565b9050919050565b6000604082019050611f23600083018561171b565b611f30602083018461171b565b9392505050565b6000611f42826114b8565b9150611f4d836114b8565b925082821015611f6057611f5f611c20565b5b828203905092915050565b6000611f76826114b8565b9150611f81836114b8565b9250827fffffffffffffffffffffffffffffffffffffffffffffffffffffffffffffffff03821115611fb657611fb5611c20565b5b828201905092915050565b7f566f74696e6720616c7265616479206163746976650000000000000000000000600082015250565b6000611ff7601583611790565b915061200282611fc1565b602082019050919050565b6000602082019050818103600083015261202681611fea565b9050919050565b7f4174206c656173742074776f2063616e64696461746573207265717569726564600082015250565b6000612063602083611790565b915061206e8261202d565b602082019050919050565b6000602082019050818103600083015261209281612056565b9050919050565b60006120a4826114b8565b91506120af836114b8565b9250817fffffffffffffffffffffffffffffffffffffffffffffffffffffffffffffffff04831182151516156120e8576120e7611c20565b5b828202905092915050565b6000606082019050612108600083018661171b565b612115602083018561171b565b612122604083018461171b565b949350505050565b7f566f74696e672073657373696f6e206973206e6f742061637469766500000000600082015250565b6000612160601c83611790565b915061216b8261212a565b602082019050919050565b6000602082019050818103600083015261218f81612153565b9050919050565b7f566f74696e6720706572696f6420696e61637469766500000000000000000000600082015250565b60006121cc601683611790565b91506121d782612196565b602082019050919050565b600060208201905081810360008301526121fb816121bf565b9050919050565b7f416c726561647920766f74656400000000000000000000000000000000000000600082015250565b6000612238600d83611790565b915061224382612202565b602082019050919050565b600060208201905081810360008301526122678161222b565b9050919050565b7f4e487b7100000000000000000000000000000000000000000000000000000000600052603260045260246000fd5b7f43616e6e6f742072656d6f76652063616e64696461746520647572696e67206160008201527f637469766520766f74696e672073657373696f6e000000000000000000000000602082015250565b60006122f9603483611790565b91506123048261229d565b604082019050919050565b60006020820190508181036000830152612328816122ec565b9050919050565b7f4976616c69642063616e64696461746520494400000000000000000000000000600082015250565b6000612365601383611790565b91506123708261232f565b602082019050919050565b6000602082019050818103600083015261239481612358565b9050919050565b60006123a6826114b8565b9150600082036123b9576123b8611c20565b5b60018203905091905056fea2646970667358221220a7399361ba6a704cea30ea29c7f784454bc50c5a576745e8f8736410e0cd2b2664736f6c634300080d0033",
  "immutableReferences": {
    "33": [
      {
        "length": 32,
        "start": 1075
      },
      {
        "length": 32,
        "start": 4268
      }
    ]
  },
  "source": "// SPDX-License-Identifier: MIT\r\npragma solidity ^0.8.0;\r\n\r\n/// @title VotingSystem\r\n/// @notice      ,     .\r\ncontract VotingSystem {\r\n    struct Candidate {\r\n        uint id;\r\n        string name;\r\n        uint voteCount;\r\n    }\r\n\r\n    struct VotingSession {\r\n        address sessionAdmin;\r\n        uint startTime;\r\n        uint endTime;\r\n        bool votingActive;\r\n        uint candidatesCount;  //  \r\n        uint activeCandidatesCount; //    \r\n        mapping(uint => Candidate) candidates;\r\n        mapping(address => bool) hasVoted;\r\n    }\r\n\r\n    address public immutable host; \r\n    uint public sessionCount;\r\n\r\n    mapping(uint => VotingSession) private sessions;\r\n\r\n    event SessionCreated(uint sessionId, address sessionAdmin);\r\n    event CandidateAdded(uint sessionId, uint candidateId, string name);\r\n    event CandidateRemoved(uint sessionId, uint candidateId, string name);\r\n    event VotingStarted(uint sessionId, uint startTime, uint endTime);\r\n    event VotingEnded(uint sessionId, uint endTime);\r\n    /// @notice ,    \r\n    /// @param voter  .\r\n    event VoteCast(uint sessionId, address indexed voter, uint candidateId);\r\n\r\n\r\n    /// @notice      \r\n    modifier onlyAdmin(uint sessionId) {\r\n        require(msg.sender == sessions[sessionId].sessionAdmin, \"Only session admin can perform this action\");\r\n        _;\r\n    }\r\n\r\n    /// @notice     ()\r\n    modifier onlyHost() {\r\n        require(msg.sender == host, \"Only host can perfom this action\");\r\n        _;\r\n    }\r\n\r\n    constructor() {\r\n        host = msg.sender;\r\n    }\r\n\r\n    /// @notice    .\r\n    /// @param sessionAdmin   .\r\n    /// @return sessionId   .\r\n    function createSession(address sessionAdmin) external onlyHost returns (uint) {\r\n        sessionCount++;\r\n        VotingSession storage newSession = sessions[sessionCount];\r\n        newSession.sessionAdmin = sessionAdmin;\r\n\r\n        emit SessionCreated(sessionCount, sessionAdmin);\r\n\r\n        return sessionCount;\r\n    }\r\n\r\n    /// @notice     .\r\n    /// @param sessionId  .\r\n    /// @param name  .\r\n    function addCandidate(uint sessionId, string memory name) external onlyAdmin(sessionId) {\r\n        VotingSession storage session = sessions[sessionId];\r\n        require(!session.votingActive, \"Cannot add candidate during active voting session\");\r\n\r\n        session.candidatesCount++;\r\n        session.activeCandidatesCount++;\r\n        session.candidates[session.candidatesCount] = Candidate(session.candidatesCount, name, 0);\r\n\r\n        emit CandidateAdded(sessionId, session.candidatesCount, name);\r\n    }\r\n\r\n    /// @notice     .\r\n    /// @param sessionId  .\r\n    /// @param candidateId  .\r\n    function removeCandidate(uint sessionId, uint candidateId) external onlyAdmin(sessionId) {\r\n        VotingSession storage session = sessions[sessionId];\r\n        require(!session.votingActive, \"Cannot remove candidate during active voting session\");\r\n        require(candidateId > 0 && candidateId <= session.candidatesCount, \"Ivalid candidate ID\");\r\n\r\n        Candidate storage candidate = session.candidates[candidateId];\r\n        require(bytes(candidate.name).length != 0, \"Candidate does not exist\");\r\n\r\n        //   \r\n        string memory candidateName = candidate.name;\r\n        delete session.candidates[candidateId];\r\n        session.activeCandidatesCount--;\r\n\r\n        emit CandidateRemoved(sessionId, candidateId, candidateName);\r\n    }\r\n \r\n    /// @notice    .\r\n    /// @param sessionId  .\r\n    /// @param durationMinutes    .\r\n    function startVoting(uint sessionId, uint durationMinutes) external onlyAdmin(sessionId) {\r\n        VotingSession storage session = sessions[sessionId];\r\n        require(!session.votingActive, \"Voting already active\");\r\n        require(session.activeCandidatesCount >= 2, \"At least two candidates required\");\r\n\r\n        session.startTime = block.timestamp;\r\n        session.endTime = block.timestamp + (durationMinutes * 1 minutes);\r\n        session.votingActive = true;\r\n\r\n        emit VotingStarted(sessionId, session.startTime, session.endTime);\r\n    }\r\n\r\n    /// @notice      .\r\n    /// @param sessionId  .\r\n    /// @param candidateId  .\r\n    function vote(uint sessionId, uint candidateId) external {\r\n        VotingSession storage session = sessions[sessionId];\r\n        require(session.votingActive, \"Voting session is not active\");\r\n        require(block.timestamp >= session.startTime && block.timestamp <= session.endTime, \"Voting period inactive\");\r\n        require(!session.hasVoted[msg.sender], \"Already voted\");\r\n        require(candidateId > 0 && candidateId <= session.candidatesCount, \"Invalid candidate ID\");\r\n        require(bytes(session.candidates[candidateId].name).length != 0, \"Candidate does not exist\");\r\n\r\n        session.hasVoted[msg.sender] = true;\r\n        session.candidates[candidateId].voteCount++;\r\n\r\n        emit VoteCast(sessionId, msg.sender, candidateId);\r\n    }\r\n\r\n    /// @notice    .\r\n    /// @param sessionId  .\r\n    function endVoting(uint sessionId) external onlyAdmin(sessionId) {\r\n        VotingSession storage session = sessions[sessionId];\r\n        require(session.votingActive, \"Voting session not active\");\r\n\r\n        session.votingActive = false;\r\n        session.endTime = block.timestamp;\r\n\r\n        emit VotingEnded(sessionId, session.endTime);\r\n    }\r\n\r\n    /// @notice     .\r\n    /// @param sessionId  .\r\n    /// @return isActive true   ,  false.\r\n    /// @return timeLeft      ( ,  0).\r\n    /// @return totalVotesCount    .\r\n    function getVotingStatus(uint sessionId) external view returns (bool isActive, uint timeLeft, uint totalVotesCount) {\r\n        VotingSession storage session = sessions[sessionId];\r\n        isActive = session.votingActive && block.timestamp < session.endTime;\r\n        timeLeft = isActive ? session.endTime - block.timestamp : 0;\r\n        for (uint i = 1; i <= session.candidatesCount; i++) { \r\n            if (bytes(session.candidates[i].name).length > 0)\r\n                totalVotesCount += session.candidates[i].voteCount;\r\n        }\r\n    }\r\n\r\n    /// @notice      .\r\n    /// @param sessionId  .\r\n    /// @param candidateId  .\r\n    /// @return name  .\r\n    /// @return voteCount    .\r\n    function getCandidate(uint sessionId, uint candidateId) external view returns (string memory name, uint voteCount) {\r\n        VotingSession storage session = sessions[sessionId];\r\n        require(candidateId > 0 && candidateId <= session.candidatesCount, \"Invalid candidate ID\");\r\n        Candidate storage candidate = session.candidates[candidateId];\r\n        require(bytes(candidate.name).length != 0, \"Candidate does not exist\");\r\n        return (candidate.name, candidate.voteCount);\r\n    }\r\n    \r\n    /// @notice      \r\n    /// @param sessionId  .\r\n    /// @return ids  .\r\n    /// @return names  .\r\n    /// @return voteCounts     .\r\n    function getActiveCandidates(uint sessionId) external view returns (uint[] memory ids, string[] memory names, uint[] memory voteCounts)\r\n    {\r\n        uint count = sessions[sessionId].activeCandidatesCount;\r\n        ids         = new uint[](count);\r\n        names       = new string[](count);\r\n        voteCounts  = new uint[](count);\r\n\r\n        uint ptr;\r\n        for (uint i = 1; i <= sessions[sessionId].candidatesCount; i++) {\r\n            Candidate storage c = sessions[sessionId].candidates[i];\r\n            if (bytes(c.name).length == 0) \r\n                continue;\r\n            ids[ptr]        = c.id;\r\n            names[ptr]      = c.name;\r\n            voteCounts[ptr] = c.voteCount;\r\n            ptr++;  \r\n        }\r\n    }  \r\n}",
  "sourcePath": "C:\\Users\\Mat\\source\\repos\\3Matvey\\Voting-System-Web3\\Voting.Contract\\contracts\\VotingSystem.sol",
  "compiler": {
    "name": "solc",
    "version": "0.8.13+commit.abaa5c0e.Emscripten.clang"
  },
  "schemaVersion": "3.4.16",
  "updatedAt": "2025-05-23T18:58:46.500Z",
  "networkType": "ethereum",
  "devdoc": {
    "events": {
      "VoteCast(uint256,address,uint256)": {
        "params": {
          "voter": " ."
        }
      }
    },
    "kind": "dev",
    "methods": {
      "addCandidate(uint256,string)": {
        "params": {
          "name": " .",
          "sessionId": " ."
        }
      },
      "createSession(address)": {
        "params": {
          "sessionAdmin": "  ."
        },
        "returns": {
          "_0": "sessionId   ."
        }
      },
      "endVoting(uint256)": {
        "params": {
          "sessionId": " ."
        }
      },
      "getActiveCandidates(uint256)": {
        "params": {
          "sessionId": " ."
        },
        "returns": {
          "ids": " .",
          "names": " .",
          "voteCounts": "    ."
        }
      },
      "getCandidate(uint256,uint256)": {
        "params": {
          "candidateId": " .",
          "sessionId": " ."
        },
        "returns": {
          "name": " .",
          "voteCount": "   ."
        }
      },
      "getVotingStatus(uint256)": {
        "params": {
          "sessionId": " ."
        },
        "returns": {
          "isActive": "true   ,  false.",
          "timeLeft": "     ( ,  0).",
          "totalVotesCount": "   ."
        }
      },
      "removeCandidate(uint256,uint256)": {
        "params": {
          "candidateId": " .",
          "sessionId": " ."
        }
      },
      "startVoting(uint256,uint256)": {
        "params": {
          "durationMinutes": "   .",
          "sessionId": " ."
        }
      },
      "vote(uint256,uint256)": {
        "params": {
          "candidateId": " .",
          "sessionId": " ."
        }
      }
    },
    "title": "VotingSystem",
    "version": 1
  },
  "userdoc": {
    "events": {
      "VoteCast(uint256,address,uint256)": {
        "notice": ",    "
      }
    },
    "kind": "user",
    "methods": {
      "addCandidate(uint256,string)": {
        "notice": "    ."
      },
      "createSession(address)": {
        "notice": "   ."
      },
      "endVoting(uint256)": {
        "notice": "   ."
      },
      "getActiveCandidates(uint256)": {
        "notice": "     "
      },
      "getCandidate(uint256,uint256)": {
        "notice": "     ."
      },
      "getVotingStatus(uint256)": {
        "notice": "    ."
      },
      "removeCandidate(uint256,uint256)": {
        "notice": "    ."
      },
      "startVoting(uint256,uint256)": {
        "notice": "   ."
      },
      "vote(uint256,uint256)": {
        "notice": "     ."
      }
    },
    "notice": "     ,     .",
    "version": 1
  }
}