{
  "contractName": "VotingSystem",
  "abi": [
    {
      "inputs": [],
      "stateMutability": "nonpayable",
      "type": "constructor"
    },
    {
      "anonymous": false,
      "inputs": [
        {
          "indexed": false,
          "internalType": "uint256",
          "name": "sessionId",
          "type": "uint256"
        },
        {
          "indexed": false,
          "internalType": "uint256",
          "name": "candidateId",
          "type": "uint256"
        },
        {
          "indexed": false,
          "internalType": "string",
          "name": "name",
          "type": "string"
        }
      ],
      "name": "CandidateAdded",
      "type": "event"
    },
    {
      "anonymous": false,
      "inputs": [
        {
          "indexed": false,
          "internalType": "uint256",
          "name": "sessionId",
          "type": "uint256"
        },
        {
          "indexed": false,
          "internalType": "uint256",
          "name": "candidateId",
          "type": "uint256"
        },
        {
          "indexed": false,
          "internalType": "string",
          "name": "name",
          "type": "string"
        }
      ],
      "name": "CandidateRemoved",
      "type": "event"
    },
    {
      "anonymous": false,
      "inputs": [
        {
          "indexed": false,
          "internalType": "uint256",
          "name": "sessionId",
          "type": "uint256"
        },
        {
          "indexed": false,
          "internalType": "address",
          "name": "sessionAdmin",
          "type": "address"
        }
      ],
      "name": "SessionCreated",
      "type": "event"
    },
    {
      "anonymous": false,
      "inputs": [
        {
          "indexed": false,
          "internalType": "uint256",
          "name": "sessionId",
          "type": "uint256"
        },
        {
          "indexed": true,
          "internalType": "address",
          "name": "voter",
          "type": "address"
        },
        {
          "indexed": false,
          "internalType": "uint256",
          "name": "candidateId",
          "type": "uint256"
        }
      ],
      "name": "VoteCast",
      "type": "event"
    },
    {
      "anonymous": false,
      "inputs": [
        {
          "indexed": false,
          "internalType": "uint256",
          "name": "sessionId",
          "type": "uint256"
        },
        {
          "indexed": false,
          "internalType": "uint256",
          "name": "endTime",
          "type": "uint256"
        }
      ],
      "name": "VotingEnded",
      "type": "event"
    },
    {
      "anonymous": false,
      "inputs": [
        {
          "indexed": false,
          "internalType": "uint256",
          "name": "sessionId",
          "type": "uint256"
        },
        {
          "indexed": false,
          "internalType": "uint256",
          "name": "startTime",
          "type": "uint256"
        },
        {
          "indexed": false,
          "internalType": "uint256",
          "name": "endTime",
          "type": "uint256"
        }
      ],
      "name": "VotingStarted",
      "type": "event"
    },
    {
      "inputs": [],
      "name": "host",
      "outputs": [
        {
          "internalType": "address",
          "name": "",
          "type": "address"
        }
      ],
      "stateMutability": "view",
      "type": "function",
      "constant": true
    },
    {
      "inputs": [],
      "name": "sessionCount",
      "outputs": [
        {
          "internalType": "uint256",
          "name": "",
          "type": "uint256"
        }
      ],
      "stateMutability": "view",
      "type": "function",
      "constant": true
    },
    {
      "inputs": [
        {
          "internalType": "address",
          "name": "sessionAdmin",
          "type": "address"
        }
      ],
      "name": "createSession",
      "outputs": [
        {
          "internalType": "uint256",
          "name": "",
          "type": "uint256"
        }
      ],
      "stateMutability": "nonpayable",
      "type": "function"
    },
    {
      "inputs": [
        {
          "internalType": "uint256",
          "name": "sessionId",
          "type": "uint256"
        },
        {
          "internalType": "string",
          "name": "name",
          "type": "string"
        }
      ],
      "name": "addCandidate",
      "outputs": [],
      "stateMutability": "nonpayable",
      "type": "function"
    },
    {
      "inputs": [
        {
          "internalType": "uint256",
          "name": "sessionId",
          "type": "uint256"
        },
        {
          "internalType": "uint256",
          "name": "candidateId",
          "type": "uint256"
        }
      ],
      "name": "removeCandidate",
      "outputs": [],
      "stateMutability": "nonpayable",
      "type": "function"
    },
    {
      "inputs": [
        {
          "internalType": "uint256",
          "name": "sessionId",
          "type": "uint256"
        },
        {
          "internalType": "uint256",
          "name": "durationMinutes",
          "type": "uint256"
        }
      ],
      "name": "startVoting",
      "outputs": [],
      "stateMutability": "nonpayable",
      "type": "function"
    },
    {
      "inputs": [
        {
          "internalType": "uint256",
          "name": "sessionId",
          "type": "uint256"
        },
        {
          "internalType": "uint256",
          "name": "candidateId",
          "type": "uint256"
        }
      ],
      "name": "vote",
      "outputs": [],
      "stateMutability": "nonpayable",
      "type": "function"
    },
    {
      "inputs": [
        {
          "internalType": "uint256",
          "name": "sessionId",
          "type": "uint256"
        }
      ],
      "name": "endVoting",
      "outputs": [],
      "stateMutability": "nonpayable",
      "type": "function"
    },
    {
      "inputs": [
        {
          "internalType": "uint256",
          "name": "sessionId",
          "type": "uint256"
        }
      ],
      "name": "getVotingStatus",
      "outputs": [
        {
          "internalType": "bool",
          "name": "isActive",
          "type": "bool"
        },
        {
          "internalType": "uint256",
          "name": "timeLeft",
          "type": "uint256"
        },
        {
          "internalType": "uint256",
          "name": "totalVotesCount",
          "type": "uint256"
        }
      ],
      "stateMutability": "view",
      "type": "function",
      "constant": true
    },
    {
      "inputs": [
        {
          "internalType": "uint256",
          "name": "sessionId",
          "type": "uint256"
        },
        {
          "internalType": "uint256",
          "name": "candidateId",
          "type": "uint256"
        }
      ],
      "name": "getCandidate",
      "outputs": [
        {
          "internalType": "string",
          "name": "name",
          "type": "string"
        },
        {
          "internalType": "uint256",
          "name": "voteCount",
          "type": "uint256"
        }
      ],
      "stateMutability": "view",
      "type": "function",
      "constant": true
    }
  ],
  "bytecode": "0x60a060405234801561001057600080fd5b503373ffffffffffffffffffffffffffffffffffffffff1660808173ffffffffffffffffffffffffffffffffffffffff1681525050608051611ee4610067600039600081816103f60152610ddb0152611ee46000f3fe608060405234801561001057600080fd5b506004361061009e5760003560e01c80638f633994116100665780638f6339941461015a57806390fe56091461018c578063b384abef146101a8578063f437bc59146101c4578063fa901afa146101e25761009e565b80631750a3d0146100a35780634254188c146100bf5780634bd46448146100ef578063649f89a51461012057806373cd83361461013c575b600080fd5b6100bd60048036038101906100b89190611363565b6101fe565b005b6100d960048036038101906100d4919061141d565b6103f2565b6040516100e69190611459565b60405180910390f35b61010960048036038101906101049190611474565b61053a565b60405161011792919061153c565b60405180910390f35b61013a6004803603810190610135919061156c565b6106b5565b005b61014461082a565b6040516101519190611459565b60405180910390f35b610174600480360381019061016f919061156c565b610830565b604051610183939291906115b4565b60405180910390f35b6101a660048036038101906101a19190611474565b61090f565b005b6101c260048036038101906101bd9190611474565b610af4565b005b6101cc610dd9565b6040516101d991906115fa565b60405180910390f35b6101fc60048036038101906101f79190611474565b610dfd565b005b816001600082815260200190815260200160002060000160009054906101000a900473ffffffffffffffffffffffffffffffffffffffff1673ffffffffffffffffffffffffffffffffffffffff163373ffffffffffffffffffffffffffffffffffffffff16146102a3576040517f08c379a000000000000000000000000000000000000000000000000000000000815260040161029a90611687565b60405180910390fd5b60006001600085815260200190815260200160002090508060030160009054906101000a900460ff161561030c576040517f08c379a000000000000000000000000000000000000000000000000000000000815260040161030390611719565b60405180910390fd5b80600401600081548092919061032190611768565b919050555080600501600081548092919061033b90611768565b919050555060405180606001604052808260040154815260200184815260200160008152508160060160008360040154815260200190815260200160002060008201518160000155602082015181600101908051906020019061039f9291906110f0565b50604082015181600201559050507fed8911b3df733b7d5f75724158e54478ea12e30f49c9d31b5261879f5b76586f848260040154856040516103e4939291906117b0565b60405180910390a150505050565b60007f000000000000000000000000000000000000000000000000000000000000000073ffffffffffffffffffffffffffffffffffffffff163373ffffffffffffffffffffffffffffffffffffffff1614610482576040517f08c379a00000000000000000000000000000000000000000000000000000000081526004016104799061183a565b60405180910390fd5b60008081548092919061049490611768565b9190505550600060016000805481526020019081526020016000209050828160000160006101000a81548173ffffffffffffffffffffffffffffffffffffffff021916908373ffffffffffffffffffffffffffffffffffffffff1602179055507f6c5e54a4b431f9740a3fe6060098a66514c1429d75fdc49180975faaf85527796000548460405161052792919061185a565b60405180910390a1600054915050919050565b6060600080600160008681526020019081526020016000209050600084118015610568575080600401548411155b6105a7576040517f08c379a000000000000000000000000000000000000000000000000000000000815260040161059e906118cf565b60405180910390fd5b6000816006016000868152602001908152602001600020905060008160010180546105d19061191e565b905003610613576040517f08c379a000000000000000000000000000000000000000000000000000000000815260040161060a9061199b565b60405180910390fd5b8060010181600201548180546106289061191e565b80601f01602080910402602001604051908101604052809291908181526020018280546106549061191e565b80156106a15780601f10610676576101008083540402835291602001916106a1565b820191906000526020600020905b81548152906001019060200180831161068457829003601f168201915b505050505091509350935050509250929050565b806001600082815260200190815260200160002060000160009054906101000a900473ffffffffffffffffffffffffffffffffffffffff1673ffffffffffffffffffffffffffffffffffffffff163373ffffffffffffffffffffffffffffffffffffffff161461075a576040517f08c379a000000000000000000000000000000000000000000000000000000000815260040161075190611687565b60405180910390fd5b60006001600084815260200190815260200160002090508060030160009054906101000a900460ff166107c2576040517f08c379a00000000000000000000000000000000000000000000000000000000081526004016107b990611a07565b60405180910390fd5b60008160030160006101000a81548160ff0219169083151502179055504281600201819055507f04e400203b6647e7ab88412380ee2430174c77bd98021012d3647eb3fa63f63f83826002015460405161081d929190611a27565b60405180910390a1505050565b60005481565b6000806000806001600086815260200190815260200160002090508060030160009054906101000a900460ff16801561086c5750806002015442105b93508361087a57600061088b565b42816002015461088a9190611a50565b5b92506000600190505b8160040154811161090657600082600601600083815260200190815260200160002060010180546108c49061191e565b905011156108f35781600601600082815260200190815260200160002060020154836108f09190611a84565b92505b80806108fe90611768565b915050610894565b50509193909250565b816001600082815260200190815260200160002060000160009054906101000a900473ffffffffffffffffffffffffffffffffffffffff1673ffffffffffffffffffffffffffffffffffffffff163373ffffffffffffffffffffffffffffffffffffffff16146109b4576040517f08c379a00000000000000000000000000000000000000000000000000000000081526004016109ab90611687565b60405180910390fd5b60006001600085815260200190815260200160002090508060030160009054906101000a900460ff1615610a1d576040517f08c379a0000000000000000000000000000000000000000000000000000000008152600401610a1490611b26565b60405180910390fd5b600281600501541015610a65576040517f08c379a0000000000000000000000000000000000000000000000000000000008152600401610a5c90611b92565b60405180910390fd5b428160010181905550603c83610a7b9190611bb2565b42610a869190611a84565b816002018190555060018160030160006101000a81548160ff0219169083151502179055507f79f4674ed037bbb3d5409860f08f43169a7aab59581ca8d1f2f97578dc944b918482600101548360020154604051610ae693929190611c0c565b60405180910390a150505050565b60006001600084815260200190815260200160002090508060030160009054906101000a900460ff16610b5c576040517f08c379a0000000000000000000000000000000000000000000000000000000008152600401610b5390611c8f565b60405180910390fd5b80600101544210158015610b74575080600201544211155b610bb3576040517f08c379a0000000000000000000000000000000000000000000000000000000008152600401610baa90611cfb565b60405180910390fd5b8060070160003373ffffffffffffffffffffffffffffffffffffffff1673ffffffffffffffffffffffffffffffffffffffff16815260200190815260200160002060009054906101000a900460ff1615610c42576040517f08c379a0000000000000000000000000000000000000000000000000000000008152600401610c3990611d67565b60405180910390fd5b600082118015610c56575080600401548211155b610c95576040517f08c379a0000000000000000000000000000000000000000000000000000000008152600401610c8c906118cf565b60405180910390fd5b60008160060160008481526020019081526020016000206001018054610cba9061191e565b905003610cfc576040517f08c379a0000000000000000000000000000000000000000000000000000000008152600401610cf39061199b565b60405180910390fd5b60018160070160003373ffffffffffffffffffffffffffffffffffffffff1673ffffffffffffffffffffffffffffffffffffffff16815260200190815260200160002060006101000a81548160ff0219169083151502179055508060060160008381526020019081526020016000206002016000815480929190610d7f90611768565b91905055503373ffffffffffffffffffffffffffffffffffffffff167f2acce567deca3aabf56327adbb4524bd5318936eaefa69e3a5208ffda0cfec098484604051610dcc929190611a27565b60405180910390a2505050565b7f000000000000000000000000000000000000000000000000000000000000000081565b816001600082815260200190815260200160002060000160009054906101000a900473ffffffffffffffffffffffffffffffffffffffff1673ffffffffffffffffffffffffffffffffffffffff163373ffffffffffffffffffffffffffffffffffffffff1614610ea2576040517f08c379a0000000000000000000000000000000000000000000000000000000008152600401610e9990611687565b60405180910390fd5b60006001600085815260200190815260200160002090508060030160009054906101000a900460ff1615610f0b576040517f08c379a0000000000000000000000000000000000000000000000000000000008152600401610f0290611df9565b60405180910390fd5b600083118015610f1f575080600401548311155b610f5e576040517f08c379a0000000000000000000000000000000000000000000000000000000008152600401610f5590611e65565b60405180910390fd5b600081600601600085815260200190815260200160002090506000816001018054610f889061191e565b905003610fca576040517f08c379a0000000000000000000000000000000000000000000000000000000008152600401610fc19061199b565b60405180910390fd5b6000816001018054610fdb9061191e565b80601f01602080910402602001604051908101604052809291908181526020018280546110079061191e565b80156110545780601f1061102957610100808354040283529160200191611054565b820191906000526020600020905b81548152906001019060200180831161103757829003601f168201915b505050505090508260060160008681526020019081526020016000206000808201600090556001820160006110899190611176565b600282016000905550508260050160008154809291906110a890611e85565b91905055507fc6a7fa5c3c69aa6762907413d05b1c1568efce466eb5b87e49b8e3d2adee48c28686836040516110e0939291906117b0565b60405180910390a1505050505050565b8280546110fc9061191e565b90600052602060002090601f01602090048101928261111e5760008555611165565b82601f1061113757805160ff1916838001178555611165565b82800160010185558215611165579182015b82811115611164578251825591602001919060010190611149565b5b50905061117291906111b6565b5090565b5080546111829061191e565b6000825580601f1061119457506111b3565b601f0160209004906000526020600020908101906111b291906111b6565b5b50565b5b808211156111cf5760008160009055506001016111b7565b5090565b6000604051905090565b600080fd5b600080fd5b6000819050919050565b6111fa816111e7565b811461120557600080fd5b50565b600081359050611217816111f1565b92915050565b600080fd5b600080fd5b6000601f19601f8301169050919050565b7f4e487b7100000000000000000000000000000000000000000000000000000000600052604160045260246000fd5b61127082611227565b810181811067ffffffffffffffff8211171561128f5761128e611238565b5b80604052505050565b60006112a26111d3565b90506112ae8282611267565b919050565b600067ffffffffffffffff8211156112ce576112cd611238565b5b6112d782611227565b9050602081019050919050565b82818337600083830152505050565b6000611306611301846112b3565b611298565b90508281526020810184848401111561132257611321611222565b5b61132d8482856112e4565b509392505050565b600082601f83011261134a5761134961121d565b5b813561135a8482602086016112f3565b91505092915050565b6000806040838503121561137a576113796111dd565b5b600061138885828601611208565b925050602083013567ffffffffffffffff8111156113a9576113a86111e2565b5b6113b585828601611335565b9150509250929050565b600073ffffffffffffffffffffffffffffffffffffffff82169050919050565b60006113ea826113bf565b9050919050565b6113fa816113df565b811461140557600080fd5b50565b600081359050611417816113f1565b92915050565b600060208284031215611433576114326111dd565b5b600061144184828501611408565b91505092915050565b611453816111e7565b82525050565b600060208201905061146e600083018461144a565b92915050565b6000806040838503121561148b5761148a6111dd565b5b600061149985828601611208565b92505060206114aa85828601611208565b9150509250929050565b600081519050919050565b600082825260208201905092915050565b60005b838110156114ee5780820151818401526020810190506114d3565b838111156114fd576000848401525b50505050565b600061150e826114b4565b61151881856114bf565b93506115288185602086016114d0565b61153181611227565b840191505092915050565b600060408201905081810360008301526115568185611503565b9050611565602083018461144a565b9392505050565b600060208284031215611582576115816111dd565b5b600061159084828501611208565b91505092915050565b60008115159050919050565b6115ae81611599565b82525050565b60006060820190506115c960008301866115a5565b6115d6602083018561144a565b6115e3604083018461144a565b949350505050565b6115f4816113df565b82525050565b600060208201905061160f60008301846115eb565b92915050565b7f4f6e6c792073657373696f6e2061646d696e2063616e20706572666f726d207460008201527f68697320616374696f6e00000000000000000000000000000000000000000000602082015250565b6000611671602a836114bf565b915061167c82611615565b604082019050919050565b600060208201905081810360008301526116a081611664565b9050919050565b7f43616e6e6f74206164642063616e64696461746520647572696e67206163746960008201527f766520766f74696e672073657373696f6e000000000000000000000000000000602082015250565b60006117036031836114bf565b915061170e826116a7565b604082019050919050565b60006020820190508181036000830152611732816116f6565b9050919050565b7f4e487b7100000000000000000000000000000000000000000000000000000000600052601160045260246000fd5b6000611773826111e7565b91507fffffffffffffffffffffffffffffffffffffffffffffffffffffffffffffffff82036117a5576117a4611739565b5b600182019050919050565b60006060820190506117c5600083018661144a565b6117d2602083018561144a565b81810360408301526117e48184611503565b9050949350505050565b7f4f6e6c7920686f73742063616e20706572666f6d207468697320616374696f6e600082015250565b60006118246020836114bf565b915061182f826117ee565b602082019050919050565b6000602082019050818103600083015261185381611817565b9050919050565b600060408201905061186f600083018561144a565b61187c60208301846115eb565b9392505050565b7f496e76616c69642063616e646964617465204944000000000000000000000000600082015250565b60006118b96014836114bf565b91506118c482611883565b602082019050919050565b600060208201905081810360008301526118e8816118ac565b9050919050565b7f4e487b7100000000000000000000000000000000000000000000000000000000600052602260045260246000fd5b6000600282049050600182168061193657607f821691505b602082108103611949576119486118ef565b5b50919050565b7f43616e64696461746520646f6573206e6f742065786973740000000000000000600082015250565b60006119856018836114bf565b91506119908261194f565b602082019050919050565b600060208201905081810360008301526119b481611978565b9050919050565b7f566f74696e672073657373696f6e206e6f742061637469766500000000000000600082015250565b60006119f16019836114bf565b91506119fc826119bb565b602082019050919050565b60006020820190508181036000830152611a20816119e4565b9050919050565b6000604082019050611a3c600083018561144a565b611a49602083018461144a565b9392505050565b6000611a5b826111e7565b9150611a66836111e7565b925082821015611a7957611a78611739565b5b828203905092915050565b6000611a8f826111e7565b9150611a9a836111e7565b9250827fffffffffffffffffffffffffffffffffffffffffffffffffffffffffffffffff03821115611acf57611ace611739565b5b828201905092915050565b7f566f74696e6720616c7265616479206163746976650000000000000000000000600082015250565b6000611b106015836114bf565b9150611b1b82611ada565b602082019050919050565b60006020820190508181036000830152611b3f81611b03565b9050919050565b7f4174206c656173742074776f2063616e64696461746573207265717569726564600082015250565b6000611b7c6020836114bf565b9150611b8782611b46565b602082019050919050565b60006020820190508181036000830152611bab81611b6f565b9050919050565b6000611bbd826111e7565b9150611bc8836111e7565b9250817fffffffffffffffffffffffffffffffffffffffffffffffffffffffffffffffff0483118215151615611c0157611c00611739565b5b828202905092915050565b6000606082019050611c21600083018661144a565b611c2e602083018561144a565b611c3b604083018461144a565b949350505050565b7f566f74696e672073657373696f6e206973206e6f742061637469766500000000600082015250565b6000611c79601c836114bf565b9150611c8482611c43565b602082019050919050565b60006020820190508181036000830152611ca881611c6c565b9050919050565b7f566f74696e6720706572696f6420696e61637469766500000000000000000000600082015250565b6000611ce56016836114bf565b9150611cf082611caf565b602082019050919050565b60006020820190508181036000830152611d1481611cd8565b9050919050565b7f416c726561647920766f74656400000000000000000000000000000000000000600082015250565b6000611d51600d836114bf565b9150611d5c82611d1b565b602082019050919050565b60006020820190508181036000830152611d8081611d44565b9050919050565b7f43616e6e6f742072656d6f76652063616e64696461746520647572696e67206160008201527f637469766520766f74696e672073657373696f6e000000000000000000000000602082015250565b6000611de36034836114bf565b9150611dee82611d87565b604082019050919050565b60006020820190508181036000830152611e1281611dd6565b9050919050565b7f4976616c69642063616e64696461746520494400000000000000000000000000600082015250565b6000611e4f6013836114bf565b9150611e5a82611e19565b602082019050919050565b60006020820190508181036000830152611e7e81611e42565b9050919050565b6000611e90826111e7565b915060008203611ea357611ea2611739565b5b60018203905091905056fea2646970667358221220a6c00ccaa8343475550befa03445a42902002742700e1e795d20097ba9eefaaa64736f6c634300080d0033",
  "immutableReferences": {
    "33": [
      {
        "length": 32,
        "start": 1014
      },
      {
        "length": 32,
        "start": 3547
      }
    ]
  },
  "source": "// SPDX-License-Identifier: MIT\r\npragma solidity ^0.8.0;\r\n\r\n/// @title VotingSystem\r\n/// @notice      ,     .\r\ncontract VotingSystem {\r\n    struct Candidate {\r\n        uint id;\r\n        string name;\r\n        uint voteCount;\r\n    }\r\n\r\n    struct VotingSession {\r\n        address sessionAdmin;\r\n        uint startTime;\r\n        uint endTime;\r\n        bool votingActive;\r\n        uint candidatesCount;  //  \r\n        uint activeCandidatesCount; //    \r\n        mapping(uint => Candidate) candidates;\r\n        mapping(address => bool) hasVoted;\r\n    }\r\n\r\n    address public immutable host; \r\n    uint public sessionCount;\r\n\r\n    mapping(uint => VotingSession) private sessions;\r\n\r\n    event SessionCreated(uint sessionId, address sessionAdmin);\r\n    event CandidateAdded(uint sessionId, uint candidateId, string name);\r\n    event CandidateRemoved(uint sessionId, uint candidateId, string name);\r\n    event VotingStarted(uint sessionId, uint startTime, uint endTime);\r\n    event VotingEnded(uint sessionId, uint endTime);\r\n    /// @notice ,    \r\n    /// @param voter  .\r\n    event VoteCast(uint sessionId, address indexed voter, uint candidateId);\r\n\r\n\r\n    /// @notice      \r\n    modifier onlyAdmin(uint sessionId) {\r\n        require(msg.sender == sessions[sessionId].sessionAdmin, \"Only session admin can perform this action\");\r\n        _;\r\n    }\r\n\r\n    /// @notice     ()\r\n    modifier onlyHost() {\r\n        require(msg.sender == host, \"Only host can perfom this action\");\r\n        _;\r\n    }\r\n\r\n    constructor() {\r\n        host = msg.sender;\r\n    }\r\n\r\n    /// @notice    .\r\n    /// @param sessionAdmin   .\r\n    /// @return sessionId   .\r\n    function createSession(address sessionAdmin) external onlyHost returns (uint) {\r\n        sessionCount++;\r\n        VotingSession storage newSession = sessions[sessionCount];\r\n        newSession.sessionAdmin = sessionAdmin;\r\n\r\n        emit SessionCreated(sessionCount, sessionAdmin);\r\n\r\n        return sessionCount;\r\n    }\r\n\r\n    /// @notice     .\r\n    /// @param sessionId  .\r\n    /// @param name  .\r\n    function addCandidate(uint sessionId, string memory name) external onlyAdmin(sessionId) {\r\n        VotingSession storage session = sessions[sessionId];\r\n        require(!session.votingActive, \"Cannot add candidate during active voting session\");\r\n\r\n        session.candidatesCount++;\r\n        session.activeCandidatesCount++;\r\n        session.candidates[session.candidatesCount] = Candidate(session.candidatesCount, name, 0);\r\n\r\n        emit CandidateAdded(sessionId, session.candidatesCount, name);\r\n    }\r\n\r\n    /// @notice     .\r\n    /// @param sessionId  .\r\n    /// @param candidateId  .\r\n    function removeCandidate(uint sessionId, uint candidateId) external onlyAdmin(sessionId) {\r\n        VotingSession storage session = sessions[sessionId];\r\n        require(!session.votingActive, \"Cannot remove candidate during active voting session\");\r\n        require(candidateId > 0 && candidateId <= session.candidatesCount, \"Ivalid candidate ID\");\r\n\r\n        Candidate storage candidate = session.candidates[candidateId];\r\n        require(bytes(candidate.name).length != 0, \"Candidate does not exist\");\r\n\r\n        //   \r\n        string memory candidateName = candidate.name;\r\n        delete session.candidates[candidateId];\r\n        session.activeCandidatesCount--;\r\n\r\n        emit CandidateRemoved(sessionId, candidateId, candidateName);\r\n    }\r\n \r\n    /// @notice    .\r\n    /// @param sessionId  .\r\n    /// @param durationMinutes    .\r\n    function startVoting(uint sessionId, uint durationMinutes) external onlyAdmin(sessionId) {\r\n        VotingSession storage session = sessions[sessionId];\r\n        require(!session.votingActive, \"Voting already active\");\r\n        require(session.activeCandidatesCount >= 2, \"At least two candidates required\");\r\n\r\n        session.startTime = block.timestamp;\r\n        session.endTime = block.timestamp + (durationMinutes * 1 minutes);\r\n        session.votingActive = true;\r\n\r\n        emit VotingStarted(sessionId, session.startTime, session.endTime);\r\n    }\r\n\r\n    /// @notice      .\r\n    /// @param sessionId  .\r\n    /// @param candidateId  .\r\n    function vote(uint sessionId, uint candidateId) external {\r\n        VotingSession storage session = sessions[sessionId];\r\n        require(session.votingActive, \"Voting session is not active\");\r\n        require(block.timestamp >= session.startTime && block.timestamp <= session.endTime, \"Voting period inactive\");\r\n        require(!session.hasVoted[msg.sender], \"Already voted\");\r\n        require(candidateId > 0 && candidateId <= session.candidatesCount, \"Invalid candidate ID\");\r\n        require(bytes(session.candidates[candidateId].name).length != 0, \"Candidate does not exist\");\r\n\r\n        session.hasVoted[msg.sender] = true;\r\n        session.candidates[candidateId].voteCount++;\r\n\r\n        emit VoteCast(sessionId, msg.sender, candidateId);\r\n    }\r\n\r\n    /// @notice    .\r\n    /// @param sessionId  .\r\n    function endVoting(uint sessionId) external onlyAdmin(sessionId) {\r\n        VotingSession storage session = sessions[sessionId];\r\n        require(session.votingActive, \"Voting session not active\");\r\n\r\n        session.votingActive = false;\r\n        session.endTime = block.timestamp;\r\n\r\n        emit VotingEnded(sessionId, session.endTime);\r\n    }\r\n\r\n    /// @notice     .\r\n    /// @param sessionId  .\r\n    /// @return isActive true   ,  false.\r\n    /// @return timeLeft      ( ,  0).\r\n    /// @return totalVotesCount    .\r\n    function getVotingStatus(uint sessionId) external view returns (bool isActive, uint timeLeft, uint totalVotesCount) {\r\n        VotingSession storage session = sessions[sessionId];\r\n        isActive = session.votingActive && block.timestamp < session.endTime;\r\n        timeLeft = isActive ? session.endTime - block.timestamp : 0;\r\n        for (uint i = 1; i <= session.candidatesCount; i++) { \r\n            if (bytes(session.candidates[i].name).length > 0)\r\n                totalVotesCount += session.candidates[i].voteCount;\r\n        }\r\n    }\r\n\r\n    /// @notice      .\r\n    /// @param sessionId  .\r\n    /// @param candidateId  .\r\n    /// @return name  .\r\n    /// @return voteCount    .\r\n    function getCandidate(uint sessionId, uint candidateId) external view returns (string memory name, uint voteCount) {\r\n        VotingSession storage session = sessions[sessionId];\r\n        require(candidateId > 0 && candidateId <= session.candidatesCount, \"Invalid candidate ID\");\r\n        Candidate storage candidate = session.candidates[candidateId];\r\n        require(bytes(candidate.name).length != 0, \"Candidate does not exist\");\r\n        return (candidate.name, candidate.voteCount);\r\n    } \r\n}",
  "sourcePath": "M:\\VotingSystem\\VotingSystem\\Voting.Contract\\contracts\\VotingSystem.sol",
  "compiler": {
    "name": "solc",
    "version": "0.8.13+commit.abaa5c0e.Emscripten.clang"
  },
  "schemaVersion": "3.4.16",
  "updatedAt": "2025-03-29T20:08:27.777Z",
  "networkType": "ethereum",
  "devdoc": {
    "events": {
      "VoteCast(uint256,address,uint256)": {
        "params": {
          "voter": " ."
        }
      }
    },
    "kind": "dev",
    "methods": {
      "addCandidate(uint256,string)": {
        "params": {
          "name": " .",
          "sessionId": " ."
        }
      },
      "createSession(address)": {
        "params": {
          "sessionAdmin": "  ."
        },
        "returns": {
          "_0": "sessionId   ."
        }
      },
      "endVoting(uint256)": {
        "params": {
          "sessionId": " ."
        }
      },
      "getCandidate(uint256,uint256)": {
        "params": {
          "candidateId": " .",
          "sessionId": " ."
        },
        "returns": {
          "name": " .",
          "voteCount": "   ."
        }
      },
      "getVotingStatus(uint256)": {
        "params": {
          "sessionId": " ."
        },
        "returns": {
          "isActive": "true   ,  false.",
          "timeLeft": "     ( ,  0).",
          "totalVotesCount": "   ."
        }
      },
      "removeCandidate(uint256,uint256)": {
        "params": {
          "candidateId": " .",
          "sessionId": " ."
        }
      },
      "startVoting(uint256,uint256)": {
        "params": {
          "durationMinutes": "   .",
          "sessionId": " ."
        }
      },
      "vote(uint256,uint256)": {
        "params": {
          "candidateId": " .",
          "sessionId": " ."
        }
      }
    },
    "title": "VotingSystem",
    "version": 1
  },
  "userdoc": {
    "events": {
      "VoteCast(uint256,address,uint256)": {
        "notice": ",    "
      }
    },
    "kind": "user",
    "methods": {
      "addCandidate(uint256,string)": {
        "notice": "    ."
      },
      "createSession(address)": {
        "notice": "   ."
      },
      "endVoting(uint256)": {
        "notice": "   ."
      },
      "getCandidate(uint256,uint256)": {
        "notice": "     ."
      },
      "getVotingStatus(uint256)": {
        "notice": "    ."
      },
      "removeCandidate(uint256,uint256)": {
        "notice": "    ."
      },
      "startVoting(uint256,uint256)": {
        "notice": "   ."
      },
      "vote(uint256,uint256)": {
        "notice": "     ."
      }
    },
    "notice": "     ,     .",
    "version": 1
  }
}