{
  "contractName": "Voting",
  "abi": [
    {
      "inputs": [],
      "stateMutability": "nonpayable",
      "type": "constructor"
    },
    {
      "anonymous": false,
      "inputs": [
        {
          "indexed": false,
          "internalType": "uint256",
          "name": "candidateID",
          "type": "uint256"
        },
        {
          "indexed": false,
          "internalType": "string",
          "name": "name",
          "type": "string"
        }
      ],
      "name": "CandidateAdded",
      "type": "event"
    },
    {
      "anonymous": false,
      "inputs": [
        {
          "indexed": true,
          "internalType": "address",
          "name": "voter",
          "type": "address"
        },
        {
          "indexed": false,
          "internalType": "uint256",
          "name": "candidateID",
          "type": "uint256"
        }
      ],
      "name": "VoteCast",
      "type": "event"
    },
    {
      "anonymous": false,
      "inputs": [
        {
          "indexed": false,
          "internalType": "uint256",
          "name": "endTime",
          "type": "uint256"
        }
      ],
      "name": "VotingEnded",
      "type": "event"
    },
    {
      "anonymous": false,
      "inputs": [
        {
          "indexed": false,
          "internalType": "uint256",
          "name": "startTime",
          "type": "uint256"
        },
        {
          "indexed": false,
          "internalType": "uint256",
          "name": "endTime",
          "type": "uint256"
        }
      ],
      "name": "VotingStarted",
      "type": "event"
    },
    {
      "inputs": [],
      "name": "admin",
      "outputs": [
        {
          "internalType": "address",
          "name": "",
          "type": "address"
        }
      ],
      "stateMutability": "view",
      "type": "function"
    },
    {
      "inputs": [
        {
          "internalType": "uint256",
          "name": "",
          "type": "uint256"
        }
      ],
      "name": "candidates",
      "outputs": [
        {
          "internalType": "uint256",
          "name": "id",
          "type": "uint256"
        },
        {
          "internalType": "string",
          "name": "name",
          "type": "string"
        },
        {
          "internalType": "uint256",
          "name": "voteCount",
          "type": "uint256"
        }
      ],
      "stateMutability": "view",
      "type": "function"
    },
    {
      "inputs": [],
      "name": "candidatesCount",
      "outputs": [
        {
          "internalType": "uint256",
          "name": "",
          "type": "uint256"
        }
      ],
      "stateMutability": "view",
      "type": "function"
    },
    {
      "inputs": [],
      "name": "endTime",
      "outputs": [
        {
          "internalType": "uint256",
          "name": "",
          "type": "uint256"
        }
      ],
      "stateMutability": "view",
      "type": "function"
    },
    {
      "inputs": [
        {
          "internalType": "address",
          "name": "",
          "type": "address"
        }
      ],
      "name": "hasVoted",
      "outputs": [
        {
          "internalType": "bool",
          "name": "",
          "type": "bool"
        }
      ],
      "stateMutability": "view",
      "type": "function"
    },
    {
      "inputs": [],
      "name": "startTime",
      "outputs": [
        {
          "internalType": "uint256",
          "name": "",
          "type": "uint256"
        }
      ],
      "stateMutability": "view",
      "type": "function"
    },
    {
      "inputs": [],
      "name": "votingActive",
      "outputs": [
        {
          "internalType": "bool",
          "name": "",
          "type": "bool"
        }
      ],
      "stateMutability": "view",
      "type": "function"
    },
    {
      "inputs": [
        {
          "internalType": "string",
          "name": "name",
          "type": "string"
        }
      ],
      "name": "addCandidate",
      "outputs": [],
      "stateMutability": "nonpayable",
      "type": "function"
    },
    {
      "inputs": [
        {
          "internalType": "uint256",
          "name": "durationMinutes",
          "type": "uint256"
        }
      ],
      "name": "startVoting",
      "outputs": [],
      "stateMutability": "nonpayable",
      "type": "function"
    },
    {
      "inputs": [
        {
          "internalType": "uint256",
          "name": "candidateID",
          "type": "uint256"
        }
      ],
      "name": "vote",
      "outputs": [],
      "stateMutability": "nonpayable",
      "type": "function"
    },
    {
      "inputs": [],
      "name": "endVoting",
      "outputs": [],
      "stateMutability": "nonpayable",
      "type": "function"
    }
  ],
  "bytecode": "0x608060405234801561000f575f80fd5b50335f806101000a81548173ffffffffffffffffffffffffffffffffffffffff021916908373ffffffffffffffffffffffffffffffffffffffff1602179055506115958061005c5f395ff3fe608060405234801561000f575f80fd5b50600436106100a7575f3560e01c80633d2f5bda1161006f5780633d2f5bda14610165578063408e272714610181578063462e91ec1461019f57806378e97925146101bb578063c3403ddf146101d9578063f851a440146101e3576100a7565b80630121b93f146100ab57806309eef43e146100c75780632d35a8a2146100f75780633197cbb6146101155780633477ee2e14610133575b5f80fd5b6100c560048036038101906100c091906109f9565b610201565b005b6100e160048036038101906100dc9190610a7e565b61044b565b6040516100ee9190610ac3565b60405180910390f35b6100ff610468565b60405161010c9190610aeb565b60405180910390f35b61011d61046e565b60405161012a9190610aeb565b60405180910390f35b61014d600480360381019061014891906109f9565b610474565b60405161015c93929190610b8e565b60405180910390f35b61017f600480360381019061017a91906109f9565b610520565b005b6101896106c1565b6040516101969190610ac3565b60405180910390f35b6101b960048036038101906101b49190610cf6565b6106d3565b005b6101c361085f565b6040516101d09190610aeb565b60405180910390f35b6101e1610865565b005b6101eb610992565b6040516101f89190610d4c565b60405180910390f35b60065f9054906101000a900460ff1661024f576040517f08c379a000000000000000000000000000000000000000000000000000000000815260040161024690610daf565b60405180910390fd5b600454421015801561026357506005544211155b6102a2576040517f08c379a000000000000000000000000000000000000000000000000000000000815260040161029990610e17565b60405180910390fd5b60025f3373ffffffffffffffffffffffffffffffffffffffff1673ffffffffffffffffffffffffffffffffffffffff1681526020019081526020015f205f9054906101000a900460ff161561032c576040517f08c379a000000000000000000000000000000000000000000000000000000000815260040161032390610e7f565b60405180910390fd5b5f8111801561033d57506003548111155b61037c576040517f08c379a000000000000000000000000000000000000000000000000000000000815260040161037390610ee7565b60405180910390fd5b600160025f3373ffffffffffffffffffffffffffffffffffffffff1673ffffffffffffffffffffffffffffffffffffffff1681526020019081526020015f205f6101000a81548160ff02191690831515021790555060015f8281526020019081526020015f206002015f8154809291906103f590610f32565b91905055503373ffffffffffffffffffffffffffffffffffffffff167fa36cc2bebb74db33e9f88110a07ef56e1b31b24b4c4f51b54b1664266e29f45b826040516104409190610aeb565b60405180910390a250565b6002602052805f5260405f205f915054906101000a900460ff1681565b60035481565b60055481565b6001602052805f5260405f205f91509050805f01549080600101805461049990610fa6565b80601f01602080910402602001604051908101604052809291908181526020018280546104c590610fa6565b80156105105780601f106104e757610100808354040283529160200191610510565b820191905f5260205f20905b8154815290600101906020018083116104f357829003601f168201915b5050505050908060020154905083565b5f8054906101000a900473ffffffffffffffffffffffffffffffffffffffff1673ffffffffffffffffffffffffffffffffffffffff163373ffffffffffffffffffffffffffffffffffffffff16146105ad576040517f08c379a00000000000000000000000000000000000000000000000000000000081526004016105a490611046565b60405180910390fd5b60065f9054906101000a900460ff16156105fc576040517f08c379a00000000000000000000000000000000000000000000000000000000081526004016105f3906110ae565b60405180910390fd5b60026003541015610642576040517f08c379a000000000000000000000000000000000000000000000000000000000815260040161063990611116565b60405180910390fd5b42600481905550603c816106569190611134565b426106619190611175565b600581905550600160065f6101000a81548160ff0219169083151502179055507ff8c022056754dbacca05aff710dc315a2fa7699ae9309fda403cd1e55c11d40f6004546005546040516106b69291906111a8565b60405180910390a150565b60065f9054906101000a900460ff1681565b5f8054906101000a900473ffffffffffffffffffffffffffffffffffffffff1673ffffffffffffffffffffffffffffffffffffffff163373ffffffffffffffffffffffffffffffffffffffff1614610760576040517f08c379a000000000000000000000000000000000000000000000000000000000815260040161075790611046565b60405180910390fd5b60065f9054906101000a900460ff16156107af576040517f08c379a00000000000000000000000000000000000000000000000000000000081526004016107a69061123f565b60405180910390fd5b60035f8154809291906107c190610f32565b9190505550604051806060016040528060035481526020018281526020015f81525060015f60035481526020019081526020015f205f820151815f0155602082015181600101908161081391906113fa565b50604082015181600201559050507fe83b2a43e7e82d975c8a0a6d2f045153c869e111136a34d1889ab7b598e396a3600354826040516108549291906114c9565b60405180910390a150565b60045481565b5f8054906101000a900473ffffffffffffffffffffffffffffffffffffffff1673ffffffffffffffffffffffffffffffffffffffff163373ffffffffffffffffffffffffffffffffffffffff16146108f2576040517f08c379a00000000000000000000000000000000000000000000000000000000081526004016108e990611046565b60405180910390fd5b60065f9054906101000a900460ff16610940576040517f08c379a000000000000000000000000000000000000000000000000000000000815260040161093790611541565b60405180910390fd5b5f60065f6101000a81548160ff0219169083151502179055507f81eb7415440ff8e6c8e92606fd3b0e5e6a5c99ea90cdb63b41aec54e897312b3426040516109889190610aeb565b60405180910390a1565b5f8054906101000a900473ffffffffffffffffffffffffffffffffffffffff1681565b5f604051905090565b5f80fd5b5f80fd5b5f819050919050565b6109d8816109c6565b81146109e2575f80fd5b50565b5f813590506109f3816109cf565b92915050565b5f60208284031215610a0e57610a0d6109be565b5b5f610a1b848285016109e5565b91505092915050565b5f73ffffffffffffffffffffffffffffffffffffffff82169050919050565b5f610a4d82610a24565b9050919050565b610a5d81610a43565b8114610a67575f80fd5b50565b5f81359050610a7881610a54565b92915050565b5f60208284031215610a9357610a926109be565b5b5f610aa084828501610a6a565b91505092915050565b5f8115159050919050565b610abd81610aa9565b82525050565b5f602082019050610ad65f830184610ab4565b92915050565b610ae5816109c6565b82525050565b5f602082019050610afe5f830184610adc565b92915050565b5f81519050919050565b5f82825260208201905092915050565b5f5b83811015610b3b578082015181840152602081019050610b20565b5f8484015250505050565b5f601f19601f8301169050919050565b5f610b6082610b04565b610b6a8185610b0e565b9350610b7a818560208601610b1e565b610b8381610b46565b840191505092915050565b5f606082019050610ba15f830186610adc565b8181036020830152610bb38185610b56565b9050610bc26040830184610adc565b949350505050565b5f80fd5b5f80fd5b7f4e487b71000000000000000000000000000000000000000000000000000000005f52604160045260245ffd5b610c0882610b46565b810181811067ffffffffffffffff82111715610c2757610c26610bd2565b5b80604052505050565b5f610c396109b5565b9050610c458282610bff565b919050565b5f67ffffffffffffffff821115610c6457610c63610bd2565b5b610c6d82610b46565b9050602081019050919050565b828183375f83830152505050565b5f610c9a610c9584610c4a565b610c30565b905082815260208101848484011115610cb657610cb5610bce565b5b610cc1848285610c7a565b509392505050565b5f82601f830112610cdd57610cdc610bca565b5b8135610ced848260208601610c88565b91505092915050565b5f60208284031215610d0b57610d0a6109be565b5b5f82013567ffffffffffffffff811115610d2857610d276109c2565b5b610d3484828501610cc9565b91505092915050565b610d4681610a43565b82525050565b5f602082019050610d5f5f830184610d3d565b92915050565b7f566f74696e672073657373696f6e206973206e6f7420616374697665000000005f82015250565b5f610d99601c83610b0e565b9150610da482610d65565b602082019050919050565b5f6020820190508181035f830152610dc681610d8d565b9050919050565b7f566f74696e6720706572696f6420696e616374697665000000000000000000005f82015250565b5f610e01601683610b0e565b9150610e0c82610dcd565b602082019050919050565b5f6020820190508181035f830152610e2e81610df5565b9050919050565b7f416c726561647920766f746564000000000000000000000000000000000000005f82015250565b5f610e69600d83610b0e565b9150610e7482610e35565b602082019050919050565b5f6020820190508181035f830152610e9681610e5d565b9050919050565b7f496e76616c69642063616e6469646174652049440000000000000000000000005f82015250565b5f610ed1601483610b0e565b9150610edc82610e9d565b602082019050919050565b5f6020820190508181035f830152610efe81610ec5565b9050919050565b7f4e487b71000000000000000000000000000000000000000000000000000000005f52601160045260245ffd5b5f610f3c826109c6565b91507fffffffffffffffffffffffffffffffffffffffffffffffffffffffffffffffff8203610f6e57610f6d610f05565b5b600182019050919050565b7f4e487b71000000000000000000000000000000000000000000000000000000005f52602260045260245ffd5b5f6002820490506001821680610fbd57607f821691505b602082108103610fd057610fcf610f79565b5b50919050565b7f4f6e6c792061646d696e2063616e20706572666f726d207468697320616374695f8201527f6f6e000000000000000000000000000000000000000000000000000000000000602082015250565b5f611030602283610b0e565b915061103b82610fd6565b604082019050919050565b5f6020820190508181035f83015261105d81611024565b9050919050565b7f566f74696e6720616c72656164792061637469766500000000000000000000005f82015250565b5f611098601583610b0e565b91506110a382611064565b602082019050919050565b5f6020820190508181035f8301526110c58161108c565b9050919050565b7f4174206c656173742074776f2063616e646964617465732072657175697265645f82015250565b5f611100602083610b0e565b915061110b826110cc565b602082019050919050565b5f6020820190508181035f83015261112d816110f4565b9050919050565b5f61113e826109c6565b9150611149836109c6565b9250828202611157816109c6565b9150828204841483151761116e5761116d610f05565b5b5092915050565b5f61117f826109c6565b915061118a836109c6565b92508282019050808211156111a2576111a1610f05565b5b92915050565b5f6040820190506111bb5f830185610adc565b6111c86020830184610adc565b9392505050565b7f43616e6e6f74206164642063616e64696461746520647572696e6720616374695f8201527f766520766f74696e672073657373696f6e000000000000000000000000000000602082015250565b5f611229603183610b0e565b9150611234826111cf565b604082019050919050565b5f6020820190508181035f8301526112568161121d565b9050919050565b5f819050815f5260205f209050919050565b5f6020601f8301049050919050565b5f82821b905092915050565b5f600883026112b97fffffffffffffffffffffffffffffffffffffffffffffffffffffffffffffffff8261127e565b6112c3868361127e565b95508019841693508086168417925050509392505050565b5f819050919050565b5f6112fe6112f96112f4846109c6565b6112db565b6109c6565b9050919050565b5f819050919050565b611317836112e4565b61132b61132382611305565b84845461128a565b825550505050565b5f90565b61133f611333565b61134a81848461130e565b505050565b5b8181101561136d576113625f82611337565b600181019050611350565b5050565b601f8211156113b2576113838161125d565b61138c8461126f565b8101602085101561139b578190505b6113af6113a78561126f565b83018261134f565b50505b505050565b5f82821c905092915050565b5f6113d25f19846008026113b7565b1980831691505092915050565b5f6113ea83836113c3565b9150826002028217905092915050565b61140382610b04565b67ffffffffffffffff81111561141c5761141b610bd2565b5b6114268254610fa6565b611431828285611371565b5f60209050601f831160018114611462575f8415611450578287015190505b61145a85826113df565b8655506114c1565b601f1984166114708661125d565b5f5b8281101561149757848901518255600182019150602085019450602081019050611472565b868310156114b457848901516114b0601f8916826113c3565b8355505b6001600288020188555050505b505050505050565b5f6040820190506114dc5f830185610adc565b81810360208301526114ee8184610b56565b90509392505050565b7f566f74696e672073657373696f6e206e6f7420616374697665000000000000005f82015250565b5f61152b601983610b0e565b9150611536826114f7565b602082019050919050565b5f6020820190508181035f8301526115588161151f565b905091905056fea26469706673582212202738e574486dd6d2ce830f7b112791c172868bf4d09beee33f5a52592659457664736f6c63430008150033",
  "immutableReferences": {},
  "source": "// SPDX-License-Identifier: MIT\r\npragma solidity ^0.8.0;\r\n\r\ncontract Voting {\r\n    struct Candidate {\r\n        uint id;\r\n        string name;\r\n        uint voteCount;\r\n    }\r\n\r\n    address public admin;\r\n    mapping(uint => Candidate) public candidates;\r\n    mapping(address => bool) public hasVoted;\r\n    uint public candidatesCount;\r\n\r\n    uint public startTime;\r\n    uint public endTime;\r\n    bool public votingActive;\r\n\r\n    event CandidateAdded(uint candidateID, string name);\r\n    event VotingStarted(uint startTime, uint endTime);\r\n    event VoteCast(address indexed voter, uint candidateID);\r\n    event VotingEnded(uint endTime);\r\n\r\n    modifier onlyAdmin() {\r\n        require(msg.sender == admin, \"Only admin can perform this action\");\r\n        _;\r\n    }\r\n\r\n    constructor() {\r\n        admin = msg.sender;\r\n    }\r\n\r\n    //    (     )\r\n    function addCandidate(string memory name) external onlyAdmin {\r\n        require(!votingActive, \"Cannot add candidate during active voting session\");\r\n        candidatesCount++;\r\n        candidates[candidatesCount] = Candidate(candidatesCount, name, 0);\r\n        emit CandidateAdded(candidatesCount, name);\r\n    }\r\n\r\n    //   (  )\r\n    function startVoting(uint durationMinutes) external onlyAdmin {\r\n        require(!votingActive, \"Voting already active\");\r\n        require(candidatesCount >= 2, \"At least two candidates required\");\r\n        startTime = block.timestamp;\r\n        endTime = block.timestamp + (durationMinutes * 1 minutes);\r\n        votingActive = true;\r\n        emit VotingStarted(startTime, endTime);\r\n    }\r\n\r\n    //  \r\n    function vote(uint candidateID) external {\r\n        require(votingActive, \"Voting session is not active\");\r\n        require(block.timestamp >= startTime && block.timestamp <= endTime, \"Voting period inactive\");\r\n        require(!hasVoted[msg.sender], \"Already voted\");\r\n        require(candidateID > 0 && candidateID <= candidatesCount, \"Invalid candidate ID\");\r\n\r\n        hasVoted[msg.sender] = true;\r\n        candidates[candidateID].voteCount++;\r\n        emit VoteCast(msg.sender, candidateID);\r\n    }\r\n\r\n    //  \r\n    function endVoting() external onlyAdmin {\r\n        require(votingActive, \"Voting session not active\");\r\n        votingActive = false;\r\n        emit VotingEnded(block.timestamp);\r\n        //           .\r\n    }\r\n}\r\n",
  "sourcePath": "M:\\VotingSystem\\VotingSystem\\Voting.Contract\\contracts\\Voting.sol",
  "compiler": {
    "name": "solc",
    "version": "0.8.21+commit.d9974bed.Emscripten.clang"
  },
  "schemaVersion": "3.4.16",
  "updatedAt": "2025-03-23T19:07:50.834Z",
  "devdoc": {
    "kind": "dev",
    "methods": {},
    "version": 1
  },
  "userdoc": {
    "kind": "user",
    "methods": {},
    "version": 1
  }
}